:020000040000FA
:040000004DEF12F0BE
:10060000003F065B4F666D7D077F6F777C395E79B3
:100610007100000E246E100E236E20EE3BF010EEE3
:1006200011F0070EDBCFE3FFE806FCE2000E956E4B
:10063000000E836EF8EC11F020EC11F09CEC12F03F
:10064000450E23EC12F04C0E23EC12F0450E23EC79
:1006500012F0490E23EC12F0430E23EC12F04F0E71
:1006600023EC12F0450E23EC12F0530E23EC12F0A3
:10067000900EE1EC10F0500E23EC12F0610E23EC22
:1006800012F0720E23EC12F0610E23EC12F0200E29
:1006900023EC12F0430E23EC12F06F0E23EC12F059
:1006A0006E0E23EC12F0740E23EC12F0690E23ECA4
:1006B00012F06E0E23EC12F0750E23EC12F0610EA8
:1006C00023EC12F0720E23EC12F0D00EE1EC10F0DD
:1006D000500E23EC12F0720E23EC12F0650E23EC98
:1006E00012F0730E23EC12F0730E23EC12F0690E6D
:1006F00023EC12F06F0E23EC12F06E0E23EC12F0CE
:10070000650E23EC12F0200E23EC12F02A0E23ECDF
:1007100012F0BAEC12F0020E016E000ECCEC11F0E9
:10072000030E016E000ECCEC11F031EC0FF074EC06
:100730000EF0B5EC12F02350011809E12450021814
:10074000D8B4A5EF03F0A7EF03F089EF03F0B5EC01
:1007500012F001C023F002C024F023A0B2EF03F096
:10076000B4EF03F048EF04F0000E266E000E256E85
:10077000000E286E000E276E010E23EC12F0274AA1
:10078000282A28BECDEF03F0285009E1100E275C7F
:10079000D8A0CDEF03F0CFEF03F0BCEF03F0254A74
:1007A000262A26BEDDEF03F0265009E1050E255C62
:1007B000D8A0DDEF03F0DFEF03F0B8EF03F0800E19
:1007C000E1EC10F0560E23EC12F06F0E23EC12F059
:1007D000740E23EC12F0610E23EC12F0720E23EC77
:1007E00012F0200E23EC12F0700E23EC12F0610ECA
:1007F00023EC12F0720E23EC12F0610E23EC12F0D7
:10080000C00EE1EC10F0500E23EC12F0720E23EC4F
:1008100012F0650E23EC12F0730E23EC12F0690E49
:1008200023EC12F0640E23EC12F0650E23EC12F0B0
:100830006E0E23EC12F0740E23EC12F0650E23EC16
:1008400012F0D00EE1EC10F0310E23EC12F02D0E70
:1008500023EC12F0430E23EC12F0610E23EC12F0A5
:100860006E0E23EC12F0640E23EC12F0690E23ECF2
:1008700012F0640E23EC12F0610E23EC12F0740EF1
:1008800023EC12F06F0E23EC12F0730E23EC12F037
:1008900023A64DEF04F04FEF04F0C5EF04F0000E77
:1008A000266E000E256E000E286E000E276E010EBD
:1008B00023EC12F0274A282A28BE68EF04F02850BB
:1008C00009E1100E275CD8A068EF04F06AEF04F08D
:1008D00057EF04F0254A262A26BE78EF04F026506A
:1008E00009E1050E255CD8A078EF04F07AEF04F05A
:1008F00053EF04F0800EE1EC10F0380E23EC12F010
:10090000330E23EC12F02D0E23EC12F04A0E23ECE2
:1009100012F06F0E23EC12F0610E23EC12F06F0E4A
:1009200023EC12F0C00EE1EC10F0390E23EC12F0C3
:10093000390E23EC12F02D0E23EC12F04D0E23ECA9
:1009400012F0610E23EC12F0720E23EC12F0690E1D
:1009500023EC12F0610E23EC12F0D00EE1EC10F05B
:10096000320E23EC12F02D0E23EC12F0560E23EC77
:1009700012F06F0E23EC12F0740E23EC12F0610EE5
:1009800023EC12F0720E23EC12F023AECAEF04F047
:10099000CCEF04F066EF05F0000E266E000E256E1B
:1009A000000E286E000E276E010E23EC12F0274A6F
:1009B000282A28BEE5EF04F0285009E1100E275C34
:1009C000D8A0E5EF04F0E7EF04F0D4EF04F0254AF7
:1009D000262A26BEF5EF04F0265009E1050E255C17
:1009E000D8A0F5EF04F0F7EF04F0D0EF04F0800E9C
:1009F000E1EC10F0560E23EC12F06F0E23EC12F027
:100A0000740E23EC12F0610E23EC12F0720E23EC44
:100A100012F0200E23EC12F0700E23EC12F0610E97
:100A200023EC12F0720E23EC12F0610E23EC12F0A4
:100A3000C00EE1EC10F0520E23EC12F0650E23EC28
:100A400012F0700E23EC12F0720E23EC12F0650E11
:100A500023EC12F0730E23EC12F0650E23EC12F06F
:100A60006E0E23EC12F0740E23EC12F0610E23ECE8
:100A700012F06E0E23EC12F0740E23EC12F0650EE1
:100A800023EC12F0D00EE1EC10F0340E23EC12F057
:100A90002D0E23EC12F0430E23EC12F06F0E23EC1C
:100AA00012F06E0E23EC12F0660E23EC12F0690EBB
:100AB00023EC12F0720E23EC12F06D0E23EC12F008
:100AC000610E23EC12F0720E23EC12F023A26BEFF6
:100AD00005F06DEF05F0C9EF05F0000E226E000E77
:100AE000216E020E016E080ECCEC11F0030E016EA9
:100AF000030ECCEC11F031EC0FF0000E2A6E000E5C
:100B0000296E294A2A2A2ABE8FEF05F02C0E295C6D
:100B1000010E2A58D8A08FEF05F091EF05F081EF74
:100B200005F0000E2A6E000E296E294A2A2A2ABED6
:100B3000A3EF05F02C0E295C010E2A58D8A0A3EFD4
:100B400005F0A5EF05F095EF05F0000E2A6E000EFA
:100B5000296E294A2A2A2ABEB7EF05F02C0E295CF5
:100B6000010E2A58D8A0B7EF05F0B9EF05F0A9EFAC
:100B700005F0214A222A22BEC7EF05F02C0E215C87
:100B8000010E2258D8A0C7EF05F0C9EF05F071EFAC
:100B900005F023AACEEF05F0D0EF05F02CEF06F01C
:100BA000000E226E000E216E020E016E090ECCECBC
:100BB00011F0030E016E090ECCEC11F031EC0FF0C8
:100BC000000E2A6E000E296E294A2A2A2ABEF2EF4A
:100BD00005F02C0E295C010E2A58D8A0F2EF05F082
:100BE000F4EF05F0E4EF05F0000E2A6E000E296E1A
:100BF000294A2A2A2ABE06EF06F02C0E295C010E8D
:100C00002A58D8A006EF06F008EF06F0F8EF05F036
:100C1000000E2A6E000E296E294A2A2A2ABE1AEFD1
:100C200006F02C0E295C010E2A58D8A01AEF06F007
:100C30001CEF06F00CEF06F0214A222A22BE2AEF12
:100C400006F02C0E215C010E2258D8A02AEF06F0E7
:100C50002CEF06F0D4EF05F023A431EF06F033EFCC
:100C600006F089EF03F0000E266E000E256E000ED2
:100C7000286E000E276E010E23EC12F0274A282A58
:100C800028BE4CEF06F0285009E1100E275CD8A0D2
:100C90004CEF06F04EEF06F03BEF06F0254A262A11
:100CA00026BE5CEF06F0265009E1050E255CD8A0B3
:100CB0005CEF06F05EEF06F037EF06F0000E206EF8
:100CC000000E1F6E1F502010D8B469EF06F06BEFB6
:100CD00006F06DEF06F07CEF09F0800EE1EC10F00D
:100CE000410E23EC12F0470E23EC12F0550E23ECCC
:100CF00012F0410E23EC12F0520E23EC12F0440ECF
:100D000023EC12F0450E23EC12F0C00EE1EC10F0D3
:100D1000530E23EC12F0650E23EC12F0750E23EC4B
:100D200012F0200E23EC12F0760E23EC12F06F0E70
:100D300023EC12F0740E23EC12F06F0E23EC12F081
:100D4000200E23EC12F0650E23EC12F0730E23EC50
:100D500012F0740E23EC12F0610E23EC12F0900EE0
:100D6000E1EC10F0730E23EC12F0650E23EC12F0A0
:100D70006E0E23EC12F0640E23EC12F06F0E23ECD7
:100D800012F0200E23EC12F0630E23EC12F06F0E23
:100D900023EC12F06D0E23EC12F0700E23EC12F027
:100DA000750E23EC12F0740E23EC12F0610E23EC9E
:100DB00012F0640E23EC12F06F0E23EC12F0000E12
:100DC0001E6E000E1D6E1EBEEFEF06F01E5009E1F6
:100DD000080E1D5CD8A0EFEF06F0F1EF06F0F3EF80
:100DE00006F075EF09F0110E1D24D96E000E1E20BD
:100DF000DA6EDF50836E000E196E000E1A6E000E52
:100E00001B6E000E1C6E19C001F01AC002F01BC050
:100E100003F01CC004F0000E056E000E066EFA0E04
:100E2000076E440E086E5FEC10F0D8A01AEF07F0C2
:100E30001CEF07F01EEF07F051EF07F019C001F0AB
:100E40001AC002F01BC003F01CC004F0000E056EB7
:100E5000000E066E800E076E3F0E086EC6EC09F09F
:100E600001C019F002C01AF003C01BF004C01CF04E
:100E700019C001F01AC002F01BC003F01CC004F03E
:100E8000000E056E000E066EFA0E076E440E086E1A
:100E90005FEC10F0D8A04FEF07F051EF07F01EEF16
:100EA00007F0829A320E96EC11F0000E2B6E000EB7
:100EB0002C6E000E2D6E000E2E6E2BC001F02CC07D
:100EC00002F02DC003F02EC004F0000E056E000EDF
:100ED000066E960E076E430E086E5FEC10F0D8A0FB
:100EE00074EF07F076EF07F078EF07F0ABEF07F05D
:100EF0002BC001F02CC002F02DC003F02EC004F076
:100F0000000E056E000E066E800E076E3F0E086E18
:100F1000C6EC09F001C02BF002C02CF003C02DF08C
:100F200004C02EF02BC001F02CC002F02DC003F045
:100F30002EC004F0000E056E000E066E960E076EB3
:100F4000430E086E5FEC10F0D8A0A9EF07F0ABEFEE
:100F500007F078EF07F0000E2B6E000E2C6E000EDF
:100F60002D6E000E2E6E2BC001F02CC002F02DC095
:100F700003F02EC004F0000E056E000E066E960EF5
:100F8000076E430E086E5FEC10F0D8A0CAEF07F0B2
:100F9000CCEF07F0CEEF07F001EF08F02BC001F027
:100FA0002CC002F02DC003F02EC004F0000E056E20
:100FB000000E066E800E076E3F0E086EC6EC09F03E
:100FC00001C02BF002C02CF003C02DF004C02EF0A5
:100FD0002BC001F02CC002F02DC003F02EC004F095
:100FE000000E056E000E066E960E076E430E086E1E
:100FF0005FEC10F0D8A0FFEF07F001EF08F0CEEFA4
:1010000007F0000E2B6E000E2C6E000E2D6E000EE3
:101010002E6E2BC001F02CC002F02DC003F02EC0AC
:1010200004F0000E056E000E066E960E076E430E5F
:10103000086E5FEC10F0D8A020EF08F022EF08F067
:1010400024EF08F057EF08F02BC001F02CC002F09D
:101050002DC003F02EC004F0000E056E000E066ECB
:10106000800E076E3F0E086EC6EC09F001C02BF033
:1010700002C02CF003C02DF004C02EF02BC001F0F4
:101080002CC002F02DC003F02EC004F0000E056E3F
:10109000000E066E960E076E430E086E5FEC10F0A3
:1010A000D8A055EF08F057EF08F024EF08F0000E35
:1010B0002B6E000E2C6E000E2D6E000E2E6E2BC0B1
:1010C00001F02CC002F02DC003F02EC004F0000E81
:1010D000056E000E066E960E076E430E086E5FECF0
:1010E00010F0D8A076EF08F078EF08F07AEF08F06B
:1010F000ADEF08F02BC001F02CC002F02DC003F0C2
:101100002EC004F0000E056E000E066E800E076EF7
:101110003F0E086EC6EC09F001C02BF002C02CF0A7
:1011200003C02DF004C02EF02BC001F02CC002F043
:101130002DC003F02EC004F0000E056E000E066EEA
:10114000960E076E430E086E5FEC10F0D8A0ABEF62
:1011500008F0ADEF08F07AEF08F09690000E206EE0
:10116000000E1F6E205009E10A0E1F5CD8A0BBEFD5
:1011700008F0BDEF08F0BFEF08F070EF09F08470E1
:10118000000E2B6E000E2C6E000E2D6E000E2E6EBD
:101190002BC001F02CC002F02DC003F02EC004F0D3
:1011A000000E056E000E066E7F0E076E430E086E73
:1011B0005FEC10F0D8A0DFEF08F0E1EF08F0E3EF0C
:1011C00008F016EF09F02BC001F02CC002F02DC082
:1011D00003F02EC004F0000E056E000E066E800EA9
:1011E000076E3F0E086EC6EC09F001C02BF002C07E
:1011F0002CF003C02DF004C02EF02BC001F02CC049
:1012000002F02DC003F02EC004F0000E056E000E9B
:10121000066E7F0E076E430E086E5FEC10F0D8A0CE
:1012200014EF09F016EF09F0E3EF08F0000E2B6E53
:10123000000E2C6E000E2D6E000E2E6E2BC001F0D7
:101240002CC002F02DC003F02EC004F0000E056E7D
:10125000000E066E7F0E076E430E086E5FEC10F0F8
:10126000D8A035EF09F037EF09F039EF09F06CEF4E
:1012700009F02BC001F02CC002F02DC003F02EC0ED
:1012800004F0000E056E000E066E800E076E3F0E17
:10129000086EC6EC09F001C02BF002C02CF003C0B0
:1012A0002DF004C02EF02BC001F02CC002F02DC098
:1012B00003F02EC004F0000E056E000E066E7F0EC9
:1012C000076E430E086E5FEC10F0D8A06AEF09F0CD
:1012D0006CEF09F039EF09F01F4A202AB2EF08F04D
:1012E00084901D4A1E2AE3EF06F0000E96EC11F0E2
:1012F0001F4A202A62EF06F0000E266E000E256EB1
:10130000000E286E000E276E010E23EC12F0274A05
:10131000282A28BE95EF09F0285009E1100E275C15
:10132000D8A095EF09F097EF09F084EF09F0254A6E
:10133000262A26BEA5EF09F0265009E1050E255CF8
:10134000D8A0A5EF09F0A7EF09F080EF09F0800E13
:10135000E1EC10F04F0E23EC12F0420E23EC12F0F1
:10136000520E23EC12F0490E23EC12F0470E23EC40
:1013700012F0410E23EC12F0440E23EC12F04F0E4B
:1013800023EC12F089EF03F000EF00F00450800B23
:101390000D6E045004240F6E03AED1EF09F0D3EFAD
:1013A00009F0D4EF09F00F800F50D8B4DAEF09F04C
:1013B000DCEF09F0F1EF09F00F28D8A4E2EF09F013
:1013C000E4EF09F0ECEF09F0000E016E000E026E82
:1013D000000E036E000E046E038E000E046EF9EF15
:1013E00009F0000E016E000E026E000E036E000E7C
:1013F000046E0850800B0E6E0D500E18D8B403EF1B
:101400000AF005EF0AF006EF0AF00D8C08500824E8
:101410000E6E07AE0EEF0AF010EF0AF011EF0AF0B1
:101420000E800E50D8B417EF0AF019EF0AF02EEF25
:101430000AF00E28D8A41FEF0AF021EF0AF029EFD6
:101440000AF0000E056E000E066E000E076E000E0E
:10145000086E078E000E086E36EF0AF0000E056E5D
:10146000000E066E000E076E000E086E0F500E5C2A
:10147000D8B03DEF0AF03FEF0AF066EF0AF00DAC8E
:1014800044EF0AF046EF0AF048EF0AF0800E0D1A1A
:101490000FC010F00EC00FF010C00EF001C010F021
:1014A00005C001F010C005F002C010F006C002F047
:1014B00010C006F003C010F007C003F010C007F022
:1014C00004C010F008C004F010C008F0000E106E48
:1014D0000F500EC009F00A6A095E000E0A5A0ABED1
:1014E0007BEF0AF00A5009E11A0E095CD8A07BEFE5
:1014F0000AF07DEF0AF0B4EF0AF001500210031079
:101500000410D8A486EF0AF089EF0AF0010E8AEFE2
:101510000AF0000E106E000E016E000E026E000E3C
:10152000036E000E046E0EC00FF0BDEF0AF010A0A7
:101530009CEF0AF09EEF0AF0A4EF0AF0D89010306A
:101540000109106EA6EF0AF0D890103201A0ABEF9F
:101550000AF0ADEF0AF0AEEF0AF0108E0434043258
:101560000332023201320F2A0E500F5CD8A0BBEFBB
:101570000AF0BDEF0AF097EF0AF00DBCC2EF0AF0D7
:10158000C4EF0AF004EF0BF00F50D8A4CAEF0AF032
:10159000CCEF0AF0D6EF0AF0000E016E000E026EDC
:1015A000000E036E000E046E25EF0CF005500126B0
:1015B00006500222075003220850042204A0E3EF41
:1015C0000AF0E5EF0AF091EF0BF010A0EAEF0AF055
:1015D000ECEF0AF0F2EF0AF0D89010300109106E2B
:1015E000F4EF0AF0D890103201A0F9EF0AF0FBEF07
:1015F0000AF0FCEF0AF0108E043404320332023297
:1016000001320F2A91EF0BF00550015C0650025891
:10161000075003580450800A096E0850800A095880
:10162000D8B015EF0BF017EF0BF042EF0BF00150B5
:10163000055C096E025006580A6E035007580B6E7F
:10164000045008580C6EFF0E0924016EFF0E0A208C
:10165000026EFF0E0B20036EFF0E0C20046E800E38
:101660000D1A106C1050D8A438EF0BF03AEF0BF0B5
:101670004AEF0BF0010E0126000E02220322042283
:101680004AEF0BF00550015E0650025A0750035A0C
:101690000850045A0150021003100410D8A453EF4C
:1016A0000BF055EF0BF08AEF0BF01050D8A45BEF66
:1016B0000BF05DEF0BF08AEF0BF0000E016E000EE9
:1016C000026E000E036E000E046E25EF0CF0D89033
:1016D000013602360336043610AE71EF0BF073EFAD
:1016E0000BF074EF0BF0018010A079EF0BF07BEFA3
:1016F0000BF07FEF0BF0D880103681EF0BF0D89015
:1017000010360F50D8B487EF0BF089EF0BF08AEF4B
:101710000BF00F0603AE8FEF0BF091EF0BF067EFBE
:101720000BF0000E0E6E10AE98EF0BF09AEF0BF070
:10173000B2EF0BF010C009F07F0E0916D8B4A3EF7A
:101740000BF0A5EF0BF0A9EF0BF0010E0E6EB2EF50
:101750000BF001A0AEEF0BF0B0EF0BF0B2EF0BF01F
:10176000A5EF0BF00E50D8B4B8EF0BF0BAEF0BF0BA
:10177000E5EF0BF0010E0126000E022203220422E7
:1017800004A0C5EF0BF0C7EF0BF0E5EF0BF001C0C5
:1017900009F002C00AF003C00BF004C00CF00C34D6
:1017A0000C320B320A32093209C001F00AC002F0D1
:1017B0000BC003F00CC004F00F28D8B4E2EF0BF01C
:1017C000E4EF0BF0E5EF0BF00F2A0F28D8B4EBEFA6
:1017D0000BF0EDEF0BF0F5EF0BF00F50D8A4F3EF9B
:1017E0000BF0F5EF0BF007EF0CF0000E016E000EA2
:1017F000026E000E036E000E046E0F50D8A403EFAD
:101800000CF005EF0CF007EF0CF0000E0D6E0FA0C2
:101810000CEF0CF00EEF0CF011EF0CF0038E12EF4A
:101820000CF0039ED8900F30046E0DAE1AEF0CF042
:101830001CEF0CF01DEF0CF0048E01C001F002C093
:1018400002F003C003F004C004F0120002BE34EF43
:101850000CF0025007E1080E015CD8B032EF0CF03A
:1018600034EF0CF05EEF0CF003500410D8B43BEFF3
:101870000CF03DEF0CF04DEF0CF001C005F0010E47
:10188000066E052A46EF0CF0D8900636052E44EF7A
:101890000CF0065092124CEF0DF001C005F0010E55
:1018A000066E052A56EF0CF0D8900636052E54EF3A
:1018B0000CF00650FF0A92164CEF0DF002BE6CEFD2
:1018C0000CF0025007E1100E015CD8B06AEF0CF08A
:1018D0006CEF0CF09AEF0CF003500410D8B473EFD7
:1018E0000CF075EF0CF087EF0CF001C005F0F80E6E
:1018F0000526010E066E052A80EF0CF0D8900636FC
:10190000052E7EEF0CF0065093124CEF0DF001C047
:1019100005F0F80E0526010E066E052A92EF0CF072
:10192000D8900636052E90EF0CF00650FF0A93165D
:101930004CEF0DF002BEA8EF0CF0025007E1180EBC
:10194000015CD8B0A6EF0CF0A8EF0CF0D6EF0CF0CD
:1019500003500410D8B4AFEF0CF0B1EF0CF0C3EFAC
:101960000CF001C005F0F00E0526010E066E052AEA
:10197000BCEF0CF0D8900636052EBAEF0CF00650EE
:1019800094124CEF0DF001C005F0F00E0526010E8B
:10199000066E052ACEEF0CF0D8900636052ECCEF59
:1019A0000CF00650FF0A94164CEF0DF002BEE4EF67
:1019B0000CF0025007E1200E015CD8B0E2EF0CF011
:1019C000E4EF0CF012EF0DF003500410D8B4EBEF7D
:1019D0000CF0EDEF0CF0FFEF0CF001C005F0E80E9D
:1019E0000526010E066E052AF8EF0CF0D890063693
:1019F000052EF6EF0CF0065095124CEF0DF001C0DD
:101A000005F0E80E0526010E066E052A0AEF0DF018
:101A1000D8900636052E08EF0DF00650FF0A9516F1
:101A20004CEF0DF002BE20EF0DF0025007E1280E42
:101A3000015CD8B01EEF0DF020EF0DF04CEF0DF073
:101A400003500410D8B427EF0DF029EF0DF03BEF51
:101A50000DF001C005F0E00E0526010E066E052A08
:101A600034EF0DF0D8900636052E32EF0DF006500B
:101A700096124CEF0DF001C005F0E00E0526010EA8
:101A8000066E052A46EF0DF0D8900636052E44EF77
:101A90000DF00650FF0A9616120002BE5BEF0DF025
:101AA000025007E1080E015CD8B059EF0DF05BEF72
:101AB0000DF085EF0DF003500410D8B462EF0DF077
:101AC00064EF0DF074EF0DF001C005F0010E066E2D
:101AD000052A6DEF0DF0D8900636052E6BEF0DF050
:101AE0000650801273EF0EF001C005F0010E066E75
:101AF000052A7DEF0DF0D8900636052E7BEF0DF010
:101B00000650FF0A801673EF0EF002BE93EF0DF041
:101B1000025007E1100E015CD8B091EF0DF093EF89
:101B20000DF0C1EF0DF0F80E0126FF0E022203505A
:101B30000410D8B49EEF0DF0A0EF0DF0B0EF0DF053
:101B400001C005F0010E066E052AA9EF0DF0D89030
:101B50000636052EA7EF0DF00650811273EF0EF03A
:101B600001C005F0010E066E052AB9EF0DF0D89000
:101B70000636052EB7EF0DF00650FF0A811673EFFB
:101B80000EF002BECFEF0DF0025007E1180E015C1F
:101B9000D8B0CDEF0DF0CFEF0DF0FDEF0DF0F00E62
:101BA0000126FF0E022203500410D8B4DAEF0DF024
:101BB000DCEF0DF0ECEF0DF001C005F0010E066E4C
:101BC000052AE5EF0DF0D8900636052EE3EF0DF06F
:101BD0000650821273EF0EF001C005F0010E066E82
:101BE000052AF5EF0DF0D8900636052EF3EF0DF02F
:101BF0000650FF0A821673EF0EF002BE0BEF0EF0D6
:101C0000025007E1200E015CD8B009EF0EF00BEF97
:101C10000EF039EF0EF0E80E0126FF0E02220350FF
:101C20000410D8B416EF0EF018EF0EF028EF0EF0F7
:101C300001C005F0010E066E052A21EF0EF0D890C6
:101C40000636052E1FEF0EF00650831273EF0EF0CE
:101C500001C005F0010E066E052A31EF0EF0D89096
:101C60000636052E2FEF0EF00650FF0A831673EF8F
:101C70000EF002BE47EF0EF0025007E1280E015CA5
:101C8000D8B045EF0EF047EF0EF073EF0EF0E00E18
:101C90000126FF0E022203500410D8B452EF0EF0BA
:101CA00054EF0EF064EF0EF001C005F0010E066E69
:101CB000052A5DEF0EF0D8900636052E5BEF0EF08C
:101CC0000650841273EF0EF001C005F0010E066E8F
:101CD000052A6DEF0EF0D8900636052E6BEF0EF04C
:101CE0000650FF0A8416120083CF06F00F0E9512DD
:101CF000000E0A6EF80E93160AC001F0010E026E75
:101D0000012A85EF0EF0D8900236012E83EF0EF0F7
:101D100002509312070E81120AC001F0010E026EEA
:101D2000012A95EF0EF0D8900236012E93EF0EF0B7
:101D30000250FF0A8116000E086E000E076E074A59
:101D4000082A08BEADEF0EF0085009E10A0E075C44
:101D5000D8A0ADEF0EF0AFEF0EF09FEF0EF0000E3B
:101D6000096E09C001F0010E026E012ABAEF0EF0F1
:101D7000D8900236012EB8EF0EF0025083140009FD
:101D8000D8A4C5EF0EF0C7EF0EF0DFEF0EF00A504B
:101D9000040DF3500924016E010E026E000E036E55
:101DA000012AD6EF0EF0D89002360336012ED3EF7B
:101DB0000EF00250311203503212F9EF0EF00A50B9
:101DC000040DF3500924016E010E026E000E036E25
:101DD000012AEEEF0EF0D89002360336012EEBEF1B
:101DE0000EF0021C046E031C056E045031160550E3
:101DF0003216092A030E096400EF0FF002EF0FF00C
:101E0000B1EF0EF00A2A020E0A6409EF0FF00BEF91
:101E10000FF07AEF0EF031502F1807E132503018E2
:101E2000D8A415EF0FF017EF0FF01AEF0FF03A06E6
:101E300020EF0FF00A0E3A6E31C02FF032C030F0B2
:101E40003A50D8A426EF0FF028EF0FF02CEF0FF048
:101E50002FC033F030C034F006C083FF000E956E03
:101E60001200000E956E000E026E020E016E000E44
:101E7000046E000E036E4DEC0DF0000E026E030EAC
:101E8000016E000E046E000E036E4DEC0DF0000EA0
:101E9000026E040E016E000E046E000E036E4DEC19
:101EA0000DF0000E026E050E016E000E046E000EA7
:101EB000036E4DEC0DF0000E836EBBEF0FF0010EC4
:101EC0003824F66EF76A060EF7220800F5CF83FF76
:101ED000000E026E020E016E000E046E010E036E05
:101EE0004DEC0DF0010E396ED8EF0FF0010E3724D6
:101EF000F66EF76A060EF7220800F5CF83FF000E94
:101F0000026E030E016E000E046E010E036E4DECA8
:101F10000DF0020E396ED8EF0FF0010E3624F66E7A
:101F2000F76A060EF7220800F5CF83FF000E026E57
:101F3000040E016E000E046E010E036E4DEC0DF0EA
:101F4000030E396ED8EF0FF0010E3524F66EF76AE6
:101F5000060EF7220800F5CF83FF000E026E050E75
:101F6000016E000E046E010E036E4DEC0DF0000EBE
:101F7000396ED8EF0FF03950076E086A0850000A22
:101F8000D8B4C5EF0FF0B7EF0FF00750000AD8B480
:101F90005FEF0FF0010AD8B476EF0FF0030AD8B460
:101FA0008DEF0FF0010AD8B4A4EF0FF0B7EF0FF0E8
:101FB0001200000E0A6E08BEE2EF0FF0E0EF0FF025
:101FC000ECEF0FF0081E071E061E056C000E062221
:101FD00007220822010E0A6E04BEF3EF0FF0F1EFA4
:101FE0000FF0FDEF0FF0041E031E021E016C000E29
:101FF000022203220422010E0A1A000E0B6E000EAA
:102000000C6E000E0D6E000E0E6E055006100710C1
:102010000810D8B40EEF10F010EF10F046EF10F0EB
:10202000010E096E1AEF10F0D89005360636073605
:102030000836092A08AE1FEF10F021EF10F014EF58
:1020400010F0D8900B360C360D360E360550015C6C
:10205000065002580750035808500458D8A033EFD0
:1020600010F035EF10F03EEF10F00550015E065015
:10207000025A0750035A0850045A0B80D89008326D
:10208000073206320532092E21EF10F00A50D8B47B
:102090004CEF10F04EEF10F056EF10F00E1E0D1E2C
:1020A0000C1E0B6C000E0C220D220E220BC001F038
:1020B0000CC002F00DC003F00EC004F01200000EC0
:1020C0000114096E000E02140A6E800E03140B6ECA
:1020D0007F0E04140C6E09500A100B100C10D8A4BB
:1020E00074EF10F076EF10F07EEF10F0000E016E3E
:1020F000000E026E000E036E000E046E000E05143C
:10210000096E000E06140A6E800E07140B6E7F0E09
:1021100008140C6E09500A100B100C10D8A493EF81
:1021200010F095EF10F09DEF10F0000E056E000E10
:10213000066E000E076E000E086E04AEA2EF10F0E1
:10214000A4EF10F0ADEF10F0016C021ED8B0022A1F
:10215000031ED8B0032A800E045608AEB2EF10F06A
:10216000B4EF10F0BDEF10F0056C061ED8B0062AD3
:10217000071ED8B0072A800E0856000E011A000E5E
:10218000021A000E031A800E041A000E051A000E21
:10219000061A000E071A800E081A0550015C065038
:1021A00002580750035808500458D8B0DAEF10F01E
:1021B000DCEF10F0DFEF10F0D890E0EF10F0D880F7
:1021C0001200086E83CF07F0000E956E000E026EAF
:1021D000220E016E000E046E000E036E4DEC0DF02B
:1021E00008C083FF000E026E210E016E000E046E09
:1021F000010E036E4DEC0DF0000E026E210E016E0D
:10220000000E046E000E036E4DEC0DF007C083FF50
:10221000020E0818D8B40FEF11F011EF11F019EFFA
:1022200011F00804D8A417EF11F019EF11F01DEF09
:1022300011F08EEC12F01FEF11F0A9EC12F0120069
:10224000000E026E220E016E000E046E000E036E72
:1022500026EC0CF0000E026E210E016E000E046ED4
:10226000000E036E26EC0CF0000E956E8EEC12F054
:102270008EEC12F08EEC12F08EEC12F08EEC12F06E
:10228000380EE1EC10F08EEC12F08EEC12F0380EFD
:10229000E1EC10F08EEC12F0380EE1EC10F0380E9C
:1022A000E1EC10F0060EE1EC10F00C0EE1EC10F099
:1022B000010EE1EC10F01200000E066E000E056E2D
:1022C00003500410D8B467EF11F069EF11F091EFEB
:1022D00011F0010E076E71EF11F0D890033604363D
:1022E000072A04AE76EF11F078EF11F06DEF11F0E0
:1022F000D890053606360350015C04500258D8A029
:1023000084EF11F086EF11F08BEF11F00350015EB6
:102310000450025A0580D89004320332072E78EF19
:1023200011F005C001F006C002F012000A6E010EA5
:10233000CB24016E026A000E02220AC003F0046A76
:1023400068EC12F001C00BF002C00CF00BC001F001
:102350000CC002F0000E046E190E036E5CEC11F05E
:1023600001C00BF002C00CF0FF0E0B16030E0C1692
:102370000BC008F00CC009F0D89009320832D89090
:10238000093208320850BE6E0BC008F0030E081662
:102390000838F00BBD121200026E0150D8A4D3EF22
:1023A00011F0D5EF11F0D7EF11F002C038F00104B1
:1023B000D8A4DDEF11F0DFEF11F0E1EF11F002C072
:1023C00037F0020E0118D8A4E8EF11F0EAEF11F08F
:1023D000ECEF11F002C036F0030E0118D8A4F3EFB1
:1023E00011F0F5EF11F0F7EF11F002C035F0120027
:1023F000000E026E020E016E000E046E000E036EE1
:1024000026EC0CF0000E026E030E016E000E046E40
:10241000000E036E26EC0CF0000E026E040E016E30
:10242000000E046E000E036E26EC0CF0000E026E21
:10243000050E016E000E046E000E036E26EC0CF00D
:10244000000E956E1200076E83CF08F0000E956E99
:10245000000E026E220E016E000E046E010E036E5F
:102460004DEC0DF007C083FF000E026E210E016ED1
:10247000000E046E010E036E4DEC0DF0000E026EA8
:10248000210E016E000E046E000E036E4DEC0DF079
:1024900008C083FFA9EC12F012007E0EF66E250E26
:1024A000F76E000EF86E00EE3BF010EE08F009003B
:1024B000F5CFEEFFE550E150FAE100EE2FF00C0E03
:1024C000EE6AE806FDE1000EF86E000109EF03F088
:1024D00001500302F3CF05F0F4CF06F001500402DF
:1024E000F350062602500302F350062605C001F001
:1024F00006C002F01200480E016EE80E026E010ED8
:10250000036E000E046E0FC005F010C006F0076ADF
:10251000086AD9EC0FF00104CB6E1200000E026EB7
:10252000A9EC12F0022A310E026499EF12F09BEF2F
:1025300012F090EF12F012009494030ECA12CA84A3
:102540000C0EBD6E000E106E640E0F6E7BEC12F062
:102550001200000E016E012A180E0164B2EF12F093
:10256000B4EF12F0ABEF12F0120033C001F034C040
:1025700002F01200070E93160F0E951212000103BF
:06258000070F1F3F7FFF63
:020000040020DA
:08000000FFFFFFFFFFFFFFFF00
:020000040030CA
:0E000000FF027100FF8380FF0FC00FE00F4072
:00000001FF
